S00E0000616C6661726D2E73726563A3
S11300000C9434000C9449000C9449000C9449005D
S11300100C9449000C9449000C9449000C94490038
S11300200C9449000C9449000C9449000C94490028
S11300300C9449000C9449000C9449000C94490018
S11300400C9449000C9449000C9449000C94490008
S11300500C9449000C9449000C9449000C944900F8
S11300600C9449000C94490011241FBECFEFD8E032
S1130070DEBFCDBF11E0A0E0B1E0ECEBFAE002C0DE
S113008005900D92A631B107D9F70E949F010C94F7
S11300905C050C9400008734910508F45CC06C3452
S11300A060F14C31A0F02635310538F00E9487010B
S11300B00E942B020E94370208952B343105E8F484
S11300C00E9487010E942B020E943402089542314B
S11300D0A0F42635310538F00E9485010E942E02D5
S11300E00E94370208952B34310538F40E948501AB
S11300F00E942B020E9434020895613460F54C3151
S1130100A0F02635310538F00E9487010E942B02A9
S11301100E94370208952B343105E8F40E948701C8
S11301200E942B020E94340208954231A0F4263525
S1130130310538F00E9487010E942B020E94370289
S113014008952B34310538F40E9487010E942E0251
S11301500E94340208954E9708F05BC06C3460F13D
S11301604C31A0F02635310538F00E9485010E94FB
S11301702B020E94370208952B343105E8F40E94C3
S113018085010E942B020E94340208954231A0F49A
S11301902635310538F00E9485010E942B020E9409
S11301A0370208952B34310538F40E9485010E94EA
S11301B02E020E9434020895613458F54C31A0F0A7
S11301C02635310538F00E9485010E942B020E94D9
S11301D0370208952B343105E0F40E9485010E9412
S11301E02E020E9434020895423198F426353105D6
S11301F038F00E9485010E942E020E943702089561
S11302002B34310530F40E9485010E942E020E9495
S113021034020895539A5B9887E893E10197F1F7C4
S113022000C00000089553988DE08A95F1F700000E
S11302304B99FECF4B9BFECF4B99FECF089527E001
S113024030E080E061E070E04B9BFECF9AE09A954D
S1130250F1F74B9B08C0AB01022E02C0440F551F9F
S11302600A94E2F7842B4B99FECF2150310960F7B1
S11302700895AF92BF92CF92DF92EF92FF920F93C5
S11302801F93CF93DF9300D000D01F92CDB7DEB77A
S11302906C017B010E940A010E9413018E010F5F11
S11302A01F4F5E0186E0A80EB11C0E941F01F801D9
S11302B081938F01EA15FB05C1F759814B812D818B
S11302C030E06A81852F90E0860F911D840F911D87
S11302D06C81860F911D99272817390721F4F6019F
S11302E05083F70140830F900F900F900F900F9061
S11302F0DF91CF911F910F91FF90EF90DF90CF90FE
S1130300BF90AF900895239A08952B9A08952B983F
S11303100895ACE7B0E080E48C93EAE7F0E087E886
S113032080838C9181608C938081806480838081C0
S113033086FDFDCF80917800909179000895CF9348
S1130340DF93CDB7DEB7E4970FB6F894DEBF0FBEE8
S1130350CDBF87E690E00E9450020E9427020E94CF
S113036031020E9483010F2EF0ECAF2EB12CF02D40
S11303700F2EF6EC8F2E912CF02D0F2EF0E0CF2EB9
S1130380F1E0DF2EF02DCE0101967C01F501808194
S1130390882324F5F4011081812F0E945B0213331A
S11303A091F028F4113349F0123351F017C015338A
S11303B081F060F0163381F011C00E942B020EC050
S11303C00E942E020BC00E94340208C00E94370211
S11303D005C00E94850102C00E948701BE016D5CB8
S11303E07F4FCE01C4960E9439010E943A02682EC2
S11303F0792E0E948901082F192F9F938F937F9242
S11304006F928CA91F928F938BA91F928F93DF9267
S1130410CF92FF92EF920E947202C7010E94630280
S1130420FFEF23ED80E3F15020408040E1F700C06E
S11304300000262D372D4BA96CA9802F912F0E94E7
S11304404B000FB6F894DEBF0FBECDBF9FCF84B173
S1130450836084B90895299A28980895299828983A
S11304600895229A569A08952A9A5E9A08952A9887
S11304705E980895ACE7B0E080E48C93EAE7F0E09E
S113048087E880838C918C7F8C93808180648083C7
S1130490808186FDFDCF8091780090917900089548
S11304A09093C5008093C40088E18093C10086E0E6
S11304B08093C2000895E0ECF0E0908195FFFDCFB9
S11304C08093C6000895CF93DF93EC01888188233D
S11304D031F021960E945B0289918111FBCFDF915B
S11304E0CF910895AEE0B0E0E8E7F2E00C94330574
S11304F00D891E8986E08C831A8309838FEF9FE719
S11305009E838D83AE01475E5F4F6F89788DCE01E8
S113051001960E949402EF81F885E00FF11F10828A
S11305202E96E4E00C944F05ABE0B0E0EAE9F2E08B
S11305300C9425056C017B018A01FC01178216824B
S1130540838181FFCCC1CE0101963C01F6019381E8
S1130550F70193FD859193FF81917F01882309F42D
S1130560BAC1853239F493FD859193FF81917F015E
S1130570853229F4B60190E00E948B04E7CF912CD8
S1130580212C312CFFE1F315D8F08B3279F038F4BB
S1130590803279F08332A1F4232D20611DC08D3285
S11305A061F0803369F4232D216016C0832D8260AD
S11305B0382EE32DE4603E2E2AC0F32DF8601DC0D2
S11305C037FC2DC020ED280F2A3040F08E32B9F4CC
S11305D036FC81C1232D2064322E19C036FE06C09C
S11305E08AE0989E200D1124922E11C0EAE02E9EDE
S11305F0200D1124222EF32DF0623F2E08C08C36DC
S113060021F4832D8068382E02C0883641F4F70126
S113061093FD859193FF81917F018111B3CF982F31
S11306209F7D9554933028F40C5F1F4F9FE399836B
S11306300DC0833631F0833771F0833509F059C02A
S113064021C0F801808189830E5F1F4F8824839421
S1130650912C530113C02801F2E04F0E511CF801F4
S1130660A080B18036FE03C0692D70E002C06FEF38
S11306707FEFC5010E9480044C018201F32DFF77B6
S11306803F2E16C0280122E0420E511CF801A08022
S1130690B18036FE03C0692D70E002C06FEF7FEFBA
S11306A0C5010E9475044C01F32DF0683F2E8201B0
S11306B033FC1BC0822D90E088169906B0F4B60175
S11306C080E290E00E948B042A94F4CFF50137FC79
S11306D0859137FE81915F01B60190E00E948B0401
S11306E021102A9421E0821A91088114910471F74F
S11306F0E8C0843611F0893641F5F80137FE07C0A9
S113070060817181828193810C5F1F4F08C0608179
S11307107181072E000C880B990B0E5F1F4FF32D70
S1130720FF763F2E97FF09C090958095709561954F
S11307307F4F8F4F9F4FF0683F2E2AE030E0A30198
S11307400E94C704882E861845C0853731F4232DAE
S11307502F7EB22E2AE030E025C0932D997FB92E4A
S11307608F36C1F018F4883579F0B5C0803719F0A8
S1130770883721F0B0C0E92FE061BE2EB4FE0DC071
S1130780FB2DF460BF2E09C034FE0AC0292F266059
S1130790B22E06C028E030E005C020E130E002C0FF
S11307A020E132E0F801B7FE07C0608171818281E7
S11307B093810C5F1F4F06C06081718180E090E0DF
S11307C00E5F1F4FA3010E94C704882E8618FB2DBD
S11307D0FF773F2E36FE0DC0232D2E7FA22E8914C7
S11307E058F434FE0BC032FC09C0832D8E7EA82E33
S11307F005C0B82CA32C03C0B82C01C0B92CA4FE8E
S11308000FC0FE01E80DF11D8081803321F49A2D83
S1130810997EA92E09C0A2FE06C0B394B39404C065
S11308208A2D867809F0B394A3FC11C0A0FE06C0FB
S1130830B21488F4280C922C9B180EC0B21460F4E5
S1130840B60180E290E00E948B04B394F7CFB21417
S113085018F42B1802C0982C212CA4FE10C0B60149
S113086080E390E00E948B04A2FE17C0A1FC03C0A9
S113087088E790E002C088E590E0B6010CC08A2DBC
S1130880867859F0A1FE02C08BE201C080E2A7FC89
S11308908DE2B60190E00E948B04891438F4B6010D
S11308A080E390E00E948B049A94F7CF8A94F3013A
S11308B0E80DF11D8081B60190E00E948B04811047
S11308C0F5CF222009F442CEB60180E290E00E94E6
S11308D08B042A94F6CFF6018681978102C08FEFAC
S11308E09FEF2B96E2E10C944105FC0105906150C9
S11308F070400110D8F7809590958E0F9F1F089532
S1130900FC016150704001900110D8F780959095DA
S11309108E0F9F1F08950F931F93CF93DF93FB01B7
S1130920238121FD03C08FEF9FEF2CC022FF16C04F
S113093046815781248135814217530744F4A081AD
S1130940B1819D012F5F3F4F318320838C9326819A
S113095037812F5F3F4F3783268314C08B01EC010F
S1130960FB010084F185E02D0995892BE1F6D8017E
S113097016968D919C911797019617969C938E933A
S11309801697CE01DF91CF911F910F910895FA012F
S1130990AA27283051F1203181F1E8946F936E7FBA
S11309A06E5F7F4F8F4F9F4FAF4FB1E03ED0B4E0AB
S11309B03CD0670F781F891F9A1FA11D680F791FEC
S11309C08A1F911DA11D6A0F711D811D911DA11DFD
S11309D020D009F468943F912AE0269F112430190D
S11309E0305D3193DEF6CF010895462F4770405DA8
S11309F04193B3E00FD0C9F7F6CF462F4F70405D57
S1130A004A3318F0495D31FD4052419302D0A9F7B1
S1130A10EACFB4E0A6959795879577956795BA95AB
S1130A20C9F700976105710508959B01AC010A2E71
S1130A3006945795479537952795BA95C9F7620F48
S1130A40731F841F951FA01D08952F923F924F92EC
S1130A505F926F927F928F929F92AF92BF92CF924A
S1130A60DF92EF92FF920F931F93CF93DF93CDB753
S1130A70DEB7CA1BDB0B0FB6F894DEBF0FBECDBFCB
S1130A8009942A88398848885F846E847D848C849C
S1130A909B84AA84B984C884DF80EE80FD800C81A5
S1130AA01B81AA81B981CE0FD11D0FB6F894DEBF88
S10F0AB00FBECDBFED010895F894FFCFF8
S1130ABC543A256420483A256420533A2564204C42
S1090ACC3A25640A000053
S9030000FC
